:1000000021C045C0EAC143C042C09DC140C03FC0FD
:100010003EC03DC03CC03BC03AC039C038C0000003
:100020000000370000000000380001030000040059
:10003000000000003600020202020202010204086F
:100040001020DF0311241FBECFE5D2E0DEBFCDBFFD
:1000500010E0A0E6B0E0E8E4F8E002C005900D9200
:10006000A237B107D9F720E0A2E7B0E001C01D92A6
:10007000A239B207E1F710E0C2E2D0E003C0219755
:10008000FE01DAD3C132D107D1F700D2DBC3B8CF3A
:100090003FB7F8948091770090917800A091790013
:1000A000B0917A0022B708B601FE05C02F3F19F0C3
:1000B0000196A11DB11D3FBFBA2FA92F982F8827E8
:1000C000BC01CD01620F711D811D911D43E0660FC2
:1000D000771F881F991F4A95D1F70895CF92DF9215
:1000E000EF92FF92CF93DF936B017C01D1DFEB01A5
:1000F000C114D104E104F10441F412C081E0C81A32
:10010000D108E108F108C851DC4FC2DF6C1B7D0B40
:10011000683E734068F3C114D104E104F10471F73F
:10012000DF91CF91FF90EF90DF90CF9008952FB7A0
:10013000F8946091730070917400809175009091B3
:1001400076002FBF089581E080938F0080938E000A
:10015000EEDF609386007093870080938800909311
:100160008900E5DF60938A0070938B0080938C0098
:1001700090938D00DCCF089587FF09C08F7701F140
:10018000813001F1823001F1833001F18FEF90E095
:10019000FC01E45CFF4F2491FC01EA5CFF4FE49119
:1001A000EE23B1F0F0E0EE0FFF1FE05DFF4FA591F1
:1001B000B491EC91E22381E090E061F480E0089555
:1001C00085E0E5CF82E0E3CF84E0E1CF83E0DFCFDD
:1001D00080E090E0089590E0FC01E65DFF4F3491EF
:1001E000FC01E45CFF4F2491FC01EA5CFF4FE491C9
:1001F000EE23B9F0332329F03130A1F48AB58F779B
:100200008ABDF0E0EE0FFF1FEC5DFF4FA591B491AA
:100210008FB7611118C0F894EC9120952E232C9380
:100220008FBF0895323019F48AB58F7DE9CF33300E
:1002300021F480B78F7D80BFE4CF343011F78CB5C7
:100240008F7D8CBDDECFF894EC912E2BE8CF61E052
:1002500083E0C1DF64E670E080E090E03FDF60E0D3
:1002600083E0B9CF61E082E0B6DF64E670E080E071
:1002700090E034DF60E082E0AECFCF93DF93D0E058
:10028000C0E080916C0090916D00C817D90748F4C8
:10029000E9DFDDDF68EE73E080E090E01FDF2196AC
:1002A000F0CFDF91CF910895CF93DF9387FF09C0FF
:1002B0008F7771F1813071F1823071F1833071F19A
:1002C0008FEF90E0FC01E45CFF4F24918A5C9F4F2C
:1002D000FC0184918823C9F090E0880F991FFC01EC
:1002E000E25EFF4FA591B491FC01EC5DFF4FC5911B
:1002F000D491611115C09FB7F8948C9120958223F9
:100300008C938881282328839FBFDF91CF91089504
:1003100085E0D7CF82E0D5CF84E0D3CF83E0D1CFC3
:10032000623051F49FB7F8943C91822F80958323DB
:100330008C93E8812E2BE7CF8FB7F894EC912E2B7E
:100340002C938FBFE2CF1F920F920FB60F92112402
:100350002F933F938F939F93AF93BF93809173009D
:1003600090917400A0917500B09176003091720068
:1003700026E0230F2D3768F129E8230F0396A11DEE
:10038000B11D209372008093730090937400A0932A
:100390007500B09376008091770090917800A091DD
:1003A0007900B0917A000196A11DB11D809377006C
:1003B00090937800A0937900B0937A00BF91AF91A9
:1003C0009F918F913F912F910F900FBE0F901F9093
:1003D00018950296A11DB11DD4CF1F920F920FB692
:1003E0000F9211242F933F934F935F936F937F93BB
:1003F0008F939F93AF93BF93CF93EF93FF9386B366
:10040000C0917B0090917C00C923982F9095C923BF
:1004100080937B00C0FF05C0E0916000F091610017
:100420000995C1FF05C0E0916A00F0916B00099544
:10043000C2FF05C0E0916200F09163000995C3FF1F
:1004400005C0E0916400F09165000995C4FF05C006
:10045000E0916600F09167000995C5FF05C0E09145
:100460006800F09169000995FF91EF91CF91BF91DC
:10047000AF919F918F917F916F915F914F913F913C
:100480002F910F900FBE0F901F90189583E08ABD9B
:1004900083BF789489B7826089BF80E48CBD8FEF79
:1004A0008DBD87EC80BF86E886B961E084E0FCDE24
:1004B00061E083E0F9DE61E084E08DDE60E083E00E
:1004C0008ADE62E080917D00EFDE60E081E0ECDEBC
:1004D00061E082E0E9DE60E082E07DDE1092910082
:1004E0001092900081E090E090936D0080936C00FA
:1004F00090E080E072D18F3F41F090E080E06DD1DC
:1005000090E090936D0080936C00C0916C00D0914E
:100510006D00BE0190E080E020E83EEE46E350E052
:1005200072D160936E0070936F008093700090930F
:100530007100CF3FD10509F0A0DE83EA90E09093EF
:100540006B0080936A0080917C00826080937C00C5
:1005500086B380937B00A99A8BB780628BBFE7DD5F
:100560006093860070938700809388009093890041
:10057000DEDD60938A0070938B0080938C009093F3
:100580008D00D5DD8CE9C82EDD24DA94ED2CFD2C10
:10059000C1E0D0E080917D00EFDD21E0892B09F4FE
:1005A00020E02093850080918400281709F4A0C0E2
:1005B00060917E0070917F00072E000C880B990BD4
:1005C0008DDD80917D00D8DD21E0009709F420E0E9
:1005D00020938500892B49F4AADD609380007093F5
:1005E000810080938200909383008091850088230E
:1005F00009F47AC0009190001091910098DD4B01B0
:100600005C018091800090918100A0918200B09166
:100610008300A7019601281B390B4A0B5B0BDA01FB
:10062000C901880D991DAA1DBB1D8C369740A105D7
:10063000B10570F40130110559F480916C0090916E
:100640006D00019690936D0080936C000BDEFFDDD2
:100650008091800090918100A0918200B0918300F0
:10066000881A990AAA0ABB0A40ED841647E0940644
:10067000A104B104C8F1012BF1F461E082E0ABDD2B
:1006800064EF71E080E090E029DD60E082E0A3DDCE
:1006900061E083E0A0DD64EF71E080E090E01EDDCA
:1006A00060E083E098DDD0936D00C0936C00D09340
:1006B0009100C093900080919000909191000197DB
:1006C00099F400916C0010916D000230110560F0FA
:1006D0000F3F110509F0D1DD602F90E080E085D05B
:1006E0001092910010929000809185008093840078
:1006F0008091900090919100892B09F059C08091D0
:100700008F00882319F060E084E065DD80918E0021
:1007100061E0811101C060E083E05DDD08DD0091F2
:100720008A0010918B0020918C0030918D00601B0D
:10073000710B820B930B6A3071058105910558F09E
:1007400010928E00F4DC60938A0070938B0080938B
:100750008C0090938D00EBDC009186001091870057
:100760002091880030918900601B710B820B930BE4
:1007700000916E0010916F00209170003091710017
:10078000601771078207930708F404CF10928F0057
:1007900061E084E020DD60E083E01DDD85B7877ED9
:1007A000806185BF85B7806285BF78948895F2CED9
:1007B00061E084E010DD60E083E00DDDEBCEEDE78D
:1007C000F0E010828AE090E09283818313821482A9
:1007D0001582168281E087830895E199FECF9FBB41
:1007E0008EBBE09A99278DB30895262FE199FECF0D
:1007F0001CBA9FBB8EBB2DBB0FB6F894E29AE19A50
:100800000FBE01960895EE27FF27AA27BB2708C031
:10081000A20FB31FE41FF51F220F331F441F551FE4
:10082000969587957795679598F37040A9F7009707
:1008300099F7BD01CF010895EE0FFF1F0590F491C8
:08084000E02D0994F894FFCFAC
:10084800BB00BB00BB00BB00BB00BB000100E80352
:0208580000009E
:00000001FF
